:020000040000FA
:06000000C9EF0EF0120032
:020006001200E6
:06000800D8EF0CF012001D
:02000E000000F0
:020010000000EE
:060018009FEF0CF0120046
:02001E000500DB
:10002000391E000080000000300000000E000000BB
:100030002E0F000004000000181E0000DE0000006B
:1000400021000000EA1D0000B00000002E000000AA
:0C005000CA1D0000000F0000200000008E
:04005C00C3EC06F0FB
:10006000DE6ADD6A5FD80F010B51FDE00B6B96EC89
:1000700008F000EC0CF0E8D9DCC0E6FF77EC06F005
:10008000DDC0E6FF77EC06F0DAC0E6FF77EC06F0BD
:10009000DBC0E6FF77EC06F04AD9F5EC06F025EC7C
:1000A00009F0E1D7FEEC05F0040EE126DE6ADD6A18
:1000B000DECF10F0DDCF11F066EC06F01150131812
:1000C000E8AE02D0133404D01250105C1350115813
:1000D0001DE2020EDB6A030EDB6A020EDBCF10F0BC
:1000E000030EDBCF11F0D890115004E6EE0E105C39
:1000F000000E115806E2020EDB2A030EEEE3DB2AA5
:10010000ECD7DF2A010ED4E3DB2AD2D7040EE15C60
:1001100002E2E16AE552E16E0EEF06F0956A836A4B
:10012000936A1200FBDF88EC07F096EC08F024ECF1
:1001300008F0C7EC0BF097EC0CF0660EE66EB70E0D
:10014000E66EE0EC0AF0E552E552320E12EC06F0F3
:10015000E66A51EC0BF0F5EF06F0CAEC06F00EE1A2
:1001600066EC06F0133404E212500708000E135434
:1001700005E355EC06F0EF508310836E0EEF06F0AA
:10018000CAEC06F00EE166EC06F0133404E21250FD
:100190000708000E135405E355EC06F0EF1C83141A
:1001A000836E0EEF06F0FEEC05F008EC06F0EF04AF
:1001B00009E17CEC06F0E4DFE552E55208EC06F0DC
:1001C000EF6A09D07CEC06F0C8DFE552E55208EC96
:1001D00006F0010EEF6E0EEF06F0C3EC06F0DE6ADD
:1001E000DD6ADECF10F0DDCF11F0D890115004E6BB
:1001F0000E0E105C000E115813E2DECFE6FFDDCFCD
:10020000E6FFABDF5BEC06F0DECFE6FFDDCFE6FF1F
:10021000B7DF5BEC06F0DF2A010EE3E3DB2AE1D770
:10022000020EE15C02E2E16AE552E16E0EEF06F0D9
:10023000000ECEEF05F0000EC3EF05F0040ECEEF7A
:1002400005F0040EC3EF05F0060ECEEF05F0060E26
:10025000C3EF05F0010ECEEF05F0010EC3EF05F080
:10026000050ECEEF05F0050EC3EF05F0070ECEEF3D
:1002700005F0070EC3EF05F0040ECEEC05F0040EFA
:10028000C3EF05F0D3EF06F01200FEEC05F0E652E6
:10029000DF6A100EDF5C1AE2EA6ADF34FE0BEA3630
:1002A000E96E800EE926000EEA22010EEE180CE13E
:1002B000ED500AE1DF50EA6AC00FE96E000EEA2253
:1002C000EFCFD9F0010E03D0DF2AE3D7000EE552BD
:1002D0000EEF06F0FEEC05F0FE0EDB50090A24E0FE
:1002E000010A20E00F0A1CE0010A18E0030A14E0EA
:1002F000010A10E0070A0CE0010A08E0030A04E022
:10030000010A13E1030E11D09F0E0FD0250E0DD060
:100310000D0E0BD0990E09D0490E07D0410E05D015
:100320001F0E03D0010E01D0090E0EEF06F0C3EC34
:1003300006F0DF6A080EDF5C21E2000ED8EC06F062
:1003400004E1020EB0EC06F003D0020EB4EC06F0AD
:10035000E552E552FC0EDBA004D0030EB0EC06F033
:1003600003D0030EB4EC06F06DEC06F0FC0EDB409F
:100370007F0BE76EFC0EDEEC06F0DCD7000EC3EC64
:1003800005F0DF6A080EDF5C2EE2000EC3EC05F01C
:10039000FD0EDB50010B010804E1020EB0EC06F08B
:1003A00003D0020EB4EC06F0E552E552FB0EDB5032
:1003B000010B010804E1030EB0EC06F003D0030EBC
:1003C000B4EC06F0E552E552FD0EDB407F0BE76E24
:1003D000FD0EE7CFDBFFFB0EDB407F0BE76EFB0E76
:1003E000DEEC06F0CFD7000ECEDB010ED7DB010E20
:1003F000CADB020EE15C02E2E16AE552E16E0EEF59
:1004000006F0C3EC06F0DF6A080EDF5C11E2040EB2
:10041000D8EC06F004E1060EB0EC06F003D0060EB0
:10042000B4EC06F06DEC06F0040EB8DBDF2AECD776
:10043000040EA9DBD3EC06F0020EE15C02E2E16AF5
:10044000E552E16E0EEF06F00001D629106E140E93
:10045000E4EC06F005C0D6F00001055002E1D52B12
:10046000D707D051290A01E158D3010A01E130D35D
:100470000F0A01E103D3010A01E1DDD2030A01E120
:10048000B3D2010A01E189D2070A01E161D2010A6E
:1004900001E10BD2030A01E1B5D1010A01E15FD10B
:1004A0003F0A01E109D1020A01E1D2D0010A01E1CA
:1004B00086D0070A53E0010A10E0030A01E01200A7
:1004C0007B0EE66E1B0E95EC06F00001D56BD86B2B
:1004D000D1C0D7F01A0ED06F12006D0EE66E1B0E53
:1004E00016EC07F00001D751D225B2DB98EC06F0EC
:1004F0000001D751D22572DB05C0DDF00001D751D4
:10050000D2256CDB09C0DCF0210E7DDB0001D1516E
:10051000D880D55505E2D56BD2C0D7F01B0ED06F71
:1005200087DB05E1875103E100011F0ED06F8CDBF3
:1005300005E1975103E10001230ED06F7DDB05E15A
:100540009F5103E10001240ED06F7ADB06E199513F
:1005500001E004D30001280ED06F1200520EE66EA7
:100560001B0E16EC07F01DEC07F0110E4CDB000122
:10057000D251D880D55505E2D56BD3C0D7F01C0E2B
:10058000D06F56DB05E1875103E100011F0ED06FEC
:100590005BDB05E1975103E10001230ED06F4CDBDB
:1005A00005E19F5103E10001240ED06F49DB06E114
:1005B000995101E0D3D20001280ED06F1200460EEF
:1005C000E66E1B0EB2DB0001D751D42541DB2EDBDA
:1005D000380EE66E1B0E97DBCBDA010EE66E0CECE6
:1005E00007F0B7DB0001D751D425F8DA05C0DBF0FE
:1005F0000001D751D425F2DA09C0DAF00C0E03DB82
:100600000001D351D880D55505E2D56BD4C0D7F0C1
:100610001D0ED06F0DDB05E1875103E100011F0EB8
:10062000D06F12DB05E1975103E10001230ED06F7B
:1006300003DB05E19F5103E10001240ED06F00DBD5
:1006400006E1995101E08AD20001280ED06F120014
:10065000460EE66E1B0E69DBCDDB290EE66E1B0E29
:1006600052DBEBDB0A0ECFDA0001D451D880D5552E
:1006700005E2D56BD1C0D7F01A0ED06FD9DA05E1FB
:10068000875103E100011F0ED06FDEDA05E19751BB
:1006900003E10001230ED06FCFDA05E19F5103E1A2
:1006A0000001240ED06FCCDA06E1995101E056D258
:1006B0000001280ED06F1200180EE66E1B0EB3DB81
:1006C00003E2120EE66E01D0E66ACCDA01E270DADD
:1006D000DEDA02E078DA1FD0DADA09E10001D805C3
:1006E00006E132CFD1F015DB16E2C3DA12D0CFDA51
:1006F00009E1020E0001D85D05E1D1DA0001D16FF8
:1007000021DB09D00001D85106E10A0ED65D03E2D3
:10071000B7DAE66E24DA8CDA06E1875104E10001EB
:10072000D86B200ED06FB7DA03E18F5101E15BDAAD
:100730008BDA05E1975103E10001230ED06F7CDADB
:1007400005E19F5103E10001240ED06F79DA06E143
:10075000995101E003D20001280ED06F1200020E61
:10076000E66E1B0E60DB03E2120EE66E01D0E66A57
:1007700079DA01E21DDA8BDA02E025DA1FD087DAB6
:1007800009E10001D80506E132CFD2F0C2DA16E263
:1007900070DA12D07CDA09E1020E0001D85D05E1C1
:1007A0007EDA0001D26FCEDA09D00001D85106E11D
:1007B0000A0ED65D03E264DAE66ED1D939DA06E1D3
:1007C000875104E10001D86B210ED06F64DA03E198
:1007D0008F5101E108DA38DA05E1975103E10001B0
:1007E000230ED06F29DA05E19F5103E10001240EA9
:1007F000D06F26DA06E1995101E0B0D10001280E50
:10080000D06F1200F20EE66E1A0E0DDB03E2120E2E
:10081000E66E01D0E66A26DA01E2CAD938DA02E0E9
:10082000D2D91FD034DA09E10001D80506E132CF70
:10083000D3F06FDA16E21DDA12D029DA09E1020EDE
:100840000001D85D05E12BDA0001D36F7BDA09D016
:100850000001D85106E10A0ED65D03E211DAE66E18
:100860007ED9E6D906E1875104E10001D86B220E5A
:10087000D06F11DA03E18F5101E1B5D9E5D905E176
:10088000975103E10001230ED06FD6D905E19F51A6
:1008900003E10001240ED06FD3D906E1995101E0A4
:1008A0005DD10001280ED06F1200E10EE66E1A0E27
:1008B000BADA03E2120EE66E01D0E66AD3D901E29B
:1008C00077D9E5D902E07FD91FD0E1D909E100014C
:1008D000D80506E132CFD4F01CDA16E2CAD912D01C
:1008E000D6D909E1020E0001D85D05E1D8D9000191
:1008F000D46F28DA09D00001D85106E10A0ED65D7E
:1009000003E2BED9E66E2BD993D906E1875104E103
:100910000001D86B1F0ED06FBED903E18F5101E1EA
:1009200062D992D905E1975103E10001230ED06FFE
:1009300083D905E19F5103E10001240ED06F80D9D6
:1009400006E1995101E00AD10001280ED06F120092
:10095000D40EE66E1A0E67DA03E2120EE66E01D0CE
:10096000E66A4FDDE55264D903E1875101E140D9E0
:1009700092D903E18F5101E136D95ED905E19F514A
:1009800003E10001240ED06F5BD906E1995101E02B
:10099000E5D00001280ED06F1200C70EE66E1A0EC9
:1009A0002CDA00D9210EF3D905E19F5103E10001B2
:1009B000250ED06F3DD903E1875101E119D96BD9DB
:1009C00003E18F5101E10FD93FD905E1975103E1CF
:1009D0000001230ED06F34D906E1995101E0BED059
:1009E0000001280ED06F1200AE0EE66E1A0E05DA68
:1009F000D9D8110ECCD905E19F5103E10001260E93
:100A0000D06F16D903E1875101E1F2D844D903E14F
:100A10008F5101E1E8D818D905E1975103E10001B0
:100A2000230ED06F0DD906E1995101E097D0000156
:100A3000280ED06F1200E7D9B5D80C0EA8D905E161
:100A40009F5103E10001270ED06FF2D803E18751D7
:100A500001E1CED820D903E18F5101E1C4D8F4D807
:100A600005E1975103E10001230ED06FE9D805E1BC
:100A7000995174E10001280ED06F1200A30EE66EAA
:100A80001A0E53D9880EE66E1A0E3DD98BD80A0E6F
:100A90007ED905E19F5103E10001240ED06FC8D833
:100AA00003E1875101E1A4D8F6D803E18F5101E1B8
:100AB0009AD8CAD805E1975103E10001230ED06FFF
:100AC000BFD805E199514AE10001280ED06F12000C
:100AD000C70EE66E1A0E91D9210E7CD905E1995107
:100AE00003E10001290ED06FA7D805E19F5103E172
:100AF0000001240ED06F9CD803E1875101E178D822
:100B0000CAD803E18F5101E16ED89ED805E1975113
:100B100025E10001230ED06F120075D90C0E5AD9B1
:100B200005E1995103E10001280ED06F85D805E158
:100B30009F5103E10001240ED06F7AD803E1875161
:100B400001E156D8A8D803E18F5101E14CD87CD8F7
:100B500005E1975103E10001230ED06F120019EC5B
:100B600009F0F5EF06F004D9E66A010EE66E19D138
:100B7000D7C010F0116A126A136AD7C0E6FFF8D81E
:100B80000E0EE66E1200F0D8E552E55212000A0E83
:100B9000106E0E6ED7C009F0D7EF0EF0E1D8E55217
:100BA000E55212000001DB69DA69DD69DC691200D7
:100BB0000F0ED16F050ED26F0A0ED36F040ED46FD5
:100BC000190ED06F12000001D851EA6A320FE96E97
:100BD0000F0EEA22D9C0EFFFD82B1200010F106EC2
:100BE0000A0EE4EF06F00001D56B190ED06F12006B
:100BF0000001D86BD56B1F0ED06F1200D9CFE6FF66
:100C0000E1CFD9FF1200E66E01EC02F0E5521200CE
:100C1000E5D8B80EE926000EEA221200E552E7CF29
:100C2000D9FF1200E66EE66AE66A1200E66AB9D0FB
:100C30000001010E861912000001010E9E1912001A
:100C40000001010E981912000001010E9619120000
:100C5000010F106E116A126A136AE66E89D80E0EC1
:100C6000E66E120001EC02F0E5520001D8510208D4
:100C70001200160EE66E1B0EE66E010EE66E1200F8
:100C8000130EE66E1B0EE66EE66A010E120045ECD0
:100C900001F0000912000001010E8E1912000A0E67
:100CA0000F013203F3503325120098D8B00EE92615
:100CB000000EEA221200E552E552F40EE66E010E35
:100CC000E66E52EC00F0E552E5521200FD0EDBCF6D
:100CD00012F0FE0EDBCF13F01200E552E552FE0ECD
:100CE000DB407F0BE76EFE0EE7CFDBFF12006AEC06
:100CF00001F0E552E66E1200FD0EDBCFE6FFFE0EC0
:100D0000DBCFE6FF1200E66EE66A010EE66EAFEF9D
:100D100005F032CF10F0116A126A136A32CFE6FF83
:100D200022DF0A0E0001D65D12007CDFAFEF05F076
:100D3000010EE66E71D82BDF05C0DBF028DF09C09D
:100D4000DAF01200106E116A126A136AE66EB3EFDF
:100D500005F01DDF05C0DDF01ADF09C0DCF0120070
:100D6000E66EE66AADEF00F0E66EE66AC0EF00F010
:100D700011C0E6FF12C0E6FF13C0E6FF120012DF4B
:100D80000A0ED65D12003ADF020EE12612003BDFAA
:100D90001CEF06F033DFFE0EDBCF11F0800E1114D6
:100DA00012000CEF07F0050EF9DE050EC3EF05F09B
:100DB000EADEFE0EDB50010B01081200E7CFDBFF7D
:100DC000000EECDEDF2A1200116E0E6E10C009F06C
:100DD000D7EF0EF018DFE6DE20EF06F0FD0EDBCFDA
:100DE000E9FFFE0EDBCFEAFF1200E552E552E552C5
:100DF000E5521200BDDE16EF06F097DFBC0EE66E80
:100E00001A0E83EF06F0A30EE66E1A0E8EDF960E14
:100E1000E66E1A0E83EF06F0CFEC08F0146E060EA5
:100E2000E15E1450120081DFBFEF06F07EDFE2DFEB
:100E3000610EE66E1B0E83EF06F09ADE79DFA9EFF6
:020E400006F0BA
:0E0E420041DBDECF10F0DDCF11F0FE0EDB50F5
:100E5000000111AE02D0D89003D0105C000E1158E2
:100E600013E2C8DAA4DA04E6010E105C000E115891
:100E700006E2020EDB2A030EF5E3DB2AF3D7DF2AB4
:100E8000010EE0E3DB2ADED7040EE15C02E2E16A58
:100E9000E552E16E2AD217DBDECF10F0DDCF11F084
:100EA000126A136A11AE02D012681368D950FB0F90
:100EB000E96EFF0EDA20EA6EEE50105CEE5011582B
:100EC000EE501258EE50135813E294DA70DA04E63A
:100ED000A00E105C000E115806E2020EDB2A030E73
:100EE000F5E3DB2AF3D7DF2A010ED6E3DB2AD4D7DA
:100EF000040EE15C02E2E16AE552E16EF6D1E9DA64
:100F0000F00B97DAFE0EDB38F00B8112CCD9EDD165
:100F100006DB190E84DA0F0E8116F80E81160F0EFD
:100F20008116300E86DA300E84DA300E82DA818A4B
:100F3000BAD9280EE66EE3DFE5520C0EE66EDFDF6F
:100F4000E552E552D2D1C5DA81128186A9DA8196BD
:100F5000A7DACBD1C5D98194DFD9C7D1C1D98184D2
:100F6000DBD98194C2D1BCD9FE0EDBCFE6FFF6DF20
:100F7000E552BBD1B5D9050EE126010EF36EDB6E4D
:100F800039DA040EDB6ADF6ADFCF10F0116A10BEB7
:100F90001168A5DA11501318E8AE02D0133404D04A
:100FA0001250105C135011581FE2FD0EDBCF10F0F1
:100FB000FE0EDBCF11F0126A136A11AE02D0126876
:100FC0001368D950010FE96EDACFEAFF10C00BF0B9
:100FD00011C00CF012C00DF013C00EF036DA13EC95
:100FE0000EF03CDADF2AD0D7010EDBCF10F0020E74
:100FF000DBCF11F0030EDBCF12F0040EDBCF13F0CA
:1010000010C006F011C007F012C008F013C009F0BC
:10101000050EE15C02E2E16AE552E16E66D17FDA3B
:10102000FE0EDB50010A04E0010A04E1800E01D04B
:10103000C00EDF6EFD0EDB50DF24DF6EDFCFE6FF7C
:1010400089DFE552E55251D1010EE66E83DFE552AC
:1010500083EF0AF045D9020EE126010EDB6A46DA7B
:1010600090D97AD903E1300E52DA36D09AD901E616
:10107000A7D904E22D0EE66E76DF5BD90A0EDF6E8D
:10108000DFCF10F0000EE76E1018E8AE02D010347B
:1010900003D0E750D88010541FE2DF04146E156AA5
:1010A00014BE1568E4D90AE0DE52010EDD6EDF04DD
:1010B000186E196A18BE1968A2D904D0010EDB5047
:1010C00002E0300E24DADF04146E156A14BE1568CF
:1010D00000D90FD9DF06D4D7020EE15C02E2E16A43
:1010E000E552E16E02D1FCD801DA99DFE552E55212
:1010F00070D908E077D901E3DB2A0800F550E66EE5
:1011000032DFF5D7F2D0ECD82ACF10F02BCF11F088
:10111000040ED89010361136E806FBE136D9FE0EE3
:10112000DBCFEFFF2C2B000E2D23DFD0F8D9DF6AA9
:10113000DFCF10F0100EE76E1018E8AE02D0E734E3
:1011400002D0E750105C18E2DFCFE9FFEA6AE9BE9F
:10115000EA68DF0EE926000EEA22200EEF6EDFCFEE
:10116000E9FFEA6AE9BEEA68EF0EE926000EEA2224
:10117000200EEF6EDF2ADCD7E552B7D0B1D8C0D849
:101180002ACF10F02BCF11F0040ED8901036113664
:10119000E806FBE1FAD8FC0EDBCFEFFFA6D0A0D823
:1011A000020EE126DF6AACD8D7D803E1300EB3D9FE
:1011B00039D0F7D801E604D904E22D0EE66EA3DF9C
:1011C000B8D8DE520A0EDD6E010EDBCF10F0000E35
:1011D000E76E1018E8AE02D0103403D0E750D88084
:1011E000105420E2010EDB04146E156A14BE15685B
:1011F0003ED909E0010EDF6EDB04186E196A18BED5
:101200001968FDD803D0DF5002E0300E84D9010EFA
:10121000DB04146E156A14BE15685BD86AD8010E1B
:10122000DB06D2D7020EE15C02E2E16AE552E16E32
:101230005CD056D865D8CDD807E0D4D801E3DB2AF6
:101240000800F55068D9F7D750D069D95CD9DF6A62
:10125000100EDF5C02E229D9FBD74FD9100EDF5CFC
:1012600002E22AD9FBD7E55240D059D90001DE511C
:10127000010A0DE0010A14E146D9DF6A100EDF5CB5
:1012800002E213D9FBD70001010EDE6F0AD035D977
:10129000100EDF5C02E210D9FBD70001DE6B01D03B
:1012A000DE6BE55222D08186010EB9D88196010EFF
:1012B0000FEF0AF0E3D8F90EDBCF06F0FA0EDBCF22
:1012C00007F0FB0EDBCF08F0FC0EDBCF09F078EF68
:1012D0000EF014C0E6FF15C0E6FF24D947EF0AF070
:1012E000D9CFE6FFE1CFD9FF1200E552E7CFD9FF12
:1012F0001200A4D8C3D8A9D878EC0EF02EEF0AF0CB
:10130000FE0EDB50010B0F012A6F2B6BFD0EDB5025
:101310000F0B2C6F2D6B1200C3D8FE0EDBCFE6FF38
:1013200012DEE552FE0EDB38F00BE66E0CDEE55207
:101330001200E55283D8000EEE6CEF1EEE22EF1E77
:10134000EE22EF1EEF22ED52ED52ED521200EA2294
:10135000EF50DDD8DF2A1200F90EDBCF10F0FA0EC5
:10136000DBCF11F0BCD81050111012101310120066
:101370008ED8300E1026000E112212221322105089
:1013800012004DDEE552E5521200DF0E1026000E6F
:10139000112210500F012C25E96E11502D21EA6EFB
:1013A00012004CD8D890030EEB50000A1200020E27
:1013B000DBCF10F0030EDBCF11F0D89011501200EC
:1013C000000EEE5C000EEE58000EEE58000EEE58C9
:1013D0001200FB0EDBCFF6FFFC0EDBCFF7FF0800A1
:1013E000F5501200FB0EDBCFF6FFDB2AFC0EDBCF45
:1013F000F7FF1200020EDB6A030EDB6A120018C050
:10140000E6FF19C0E6FF8ED806C014F007C015F03D
:1014100008C016F009C017F04DDFB8EF09F0E66E0E
:10142000E66AE66AE66A37DDE552E552E552E552DC
:101430001200811238DF0F0E81161200D950F90FF9
:10144000E96EFF0EDA20EA6E1200EECF06F0EECF64
:1014500007F0EECF08F0EFCF09F0120005C0EDFF66
:1014600004C0EDFF03C0EDFF02C0EFFF120031DF4B
:1014700021DF0650071008100910120006C00BF0FB
:1014800007C00CF008C00DF009C00EF0120006C035
:1014900010F007C011F008C012F009C013F01200DC
:1014A000010EE66ECEDCE5521200DF50EA6ADF0F75
:1014B000E96E000EA7EF09F0DF50EA6AEF0FE96E60
:1014C000000EA7EF09F00CDF040EE126DE6ADD6AEC
:1014D000120006DF0F0E8116FE0EDB501200FB0E0F
:1014E000DBCF12F0FC0EDBCF13F01200FD0EDBCFD2
:1014F000E6FFFE0EDBCFE6FF1200E66A010EE66EA7
:1015000040DFDF6A1200E66AE66AC1EF09F0E66EC4
:101510002ADDE5521200E66EF6DDE5521200E0DE4D
:10152000E65212000A0EE66EE66A24DDE552E55246
:06153000E552E552120035
:0A15360018D9D59EFD0EDBCF00FF93
:10154000FE0EDBCF01FFD59CFAD8D59AD586F28A5C
:10155000F294F184D58ED5D0D59E1200F0D8D58ED8
:10156000120002D9CD90FD0EDBCF02FFFE0EDBCFC5
:1015700003FFECD89D809E909F90CD8ECD8CCD9812
:10158000CD9ACD96CD92CD80BCD0E0D8CD80120042
:10159000CD901200E9D8CA94CC6AFE0EDB500F0140
:1015A000046F056BCB6E9D829E929F92CA90CA92E9
:1015B000CA84A7D004CFCBFFCA841200CA941200F9
:1015C000D3D8B190FD0EDBCF06FFFE0EDBCF07FFB9
:1015D000C4D80750B36EC1D8A4D8B26EA082A1926D
:1015E000A292B18EB198B19AB192B1808AD0B5D899
:1015F0000350B26EB2D88DD8B36EB1801200B190E4
:1016000012000F01102B000E11231851105D1951FB
:10161000115904E3106B116B010E086F12000F01DA
:10162000122B000E13231A51125D1B51135904E3A0
:10163000126B136B010E096F12000F01142B000EB9
:1016400015231C51145D1D51155904E3146B156BC2
:10165000010E0A6F12000F01162B000E17231E51E8
:10166000165D1F51175904E3166B176B010E0B6FB4
:1016700012007AD8FB0EDBCF18FFFC0EDBCF19FF70
:101680000F01106B116B086B3CD02DD8050E51D893
:1016900006C01AFF07C01BFF0F01126B136B096B0B
:1016A00030D021D80A0E45D806C01EFF07C01FFF44
:1016B0000F01166B176B0B6B24D0186A1650135C56
:1016C000106E17501458116E18501558126E0C6A7F
:1016D000010E0D6E0E6A10C007F011C008F012C0A6
:1016E00009F04BEF0EF040D8FB0EDBCF06F0FC0EFE
:1016F000DBCF07F0FD0EDBCF08F0FE0EDBCF09F0ED
:101700001200E552E7CFD9FF120013681468156A7A
:10171000120007C010F008C011F009C012F0075005
:10172000120003C010F004C011F005C012F0035005
:1017300012000B6E0C6A0D6A0E6A78EF0EF019D863
:101740000350D66E16D8E5DFD76E120019D80750B1
:10175000CF6E16D8E6DFCE6E1200D7DF06CF16F0BA
:1017600007CF17F05DEF0BF0D9CFE6FFE1CFD9FF40
:101770001200CBDF00CF16F001CF17F05DEF0BF0BA
:0E178000C4DF02CF16F003CF17F05DEF0BF0C1
:02178E000F0E3C
:10179000946E82681200946882681200ACD8A0D857
:1017A000115004E6080E105C000E11581FE29ED87E
:1017B000A80EE926000EEA22EF5082140FE1B4D8F9
:1017C000EECF10F0EFCF11F0010E1026000E112217
:1017D000ABD810C0EEFF11C0EDFF03D0A5D8EE6A64
:1017E000ED6ADF2A010EDBE3DB2AD9D7040EE15CC8
:1017F00002E2E16AE552E16EE552E7CFD9FF12005D
:101800007AD86ED8115004E6040E105C000E115800
:1018100055E26CD8A00EE926000EEA22EF1C826E7B
:10182000020EDB6A030EDB6A020EDBCF10F0030E42
:10183000DBCF11F0D890115004E6040E105C000EBE
:10184000115837E2020EDBCFE9FF030EDBCFEAFFD0
:10185000A40EE926000EEA22EF50821421E1DECF29
:1018600014F0DDCF15F0D89014361536D890143614
:101870001536020EDB501424E96E030EDB501520E2
:10188000EA6E26D8EECF12F0EFCF13F0010E12263B
:10189000000E132239D812C0EEFF13C0EDFF03D0A3
:1018A00033D8EE6AED6A020EDB2A030EBDE3DB2AB3
:1018B000BBD7DF2A010EA5E3DB2AA3D7040EE15C28
:1018C00002E2E16AE552E16EE552E7CFD9FF12008C
:1018D000D890E936EA36800EE926000EEA22120098
:1018E000DECF10F0DDCF11F0D8901200DECFE9FF8F
:1018F000DDCFEAFF1200D9CFE6FFE1CFD9FF040E1A
:10190000E126DE6ADD6A1200EBDF10361136D89070
:1019100010361136020EDB501024E96E030EDB5038
:0E1920001120EA6E68EF0CF0E1DF68EF0CF0CA
:02192E00F28E37
:10193000D08EF28C1200F19CF292F2881200D8CF75
:10194000E4FFE0CFE4FFE46E62D800EE00F0100E9A
:10195000E80403E3EECFE4FFFBD700EE10F00A0E3D
:10196000E80403E3EECFE4FFFBD7E652F2B477D806
:101970009EB07CD8A1B281D8F2B2F2929EBA9E9A61
:10198000E55200EE19F00A0EE80403E3E5CFEDFF9F
:10199000FBD700EE0FF0100EE80403E3E5CFEDFFF8
:1019A000FBD74AD8E550E5CFE0FFE5CFD8FF1000E0
:1019B0002ED800EE00F0100EE80403E3EECFE4FFB3
:1019C000FBD700EE10F00A0EE80403E3EECFE4FFCD
:1019D000FBD7E652F2B443D89EB048D8A1B24DD856
:1019E000F2B2F2929EBA9E9AE55200EE19F00A0EF9
:1019F000E80403E3E5CFEDFFFBD700EE0FF0100E98
:101A0000E80403E3E5CFEDFFFBD716D81100DACFEA
:101A1000E4FFE2CFDAFFE9CFE4FFEACFE4FFF6CF5D
:101A2000E4FFF7CFE4FFF5CFE4FFF3CFE4FFF4CF1B
:101A3000E4FFFACFE4FF1200E5CFFAFFE5CFF4FFB1
:101A4000E5CFF3FFE5CFF5FFE5CFF7FFE5CFF6FFF5
:101A5000E5CFEAFFE5CFE9FFE5CFDAFF1200ACEC16
:101A60000AF0F294AEEC0AF001EF0BF0C8EC0AF0C9
:101A70009E90C5EC0AF00FEF0BF0FFEC0AF0A1927C
:081A8000F7EC0AF02BEF0BF06C
:081A880050484153453220593A
:101A9000454C4C4F57005048415345322047524522
:101AA000454E00504841534531205245440050486E
:101AB000415345312059454C4C4F570050484153F4
:101AC0004532205245440050484153453120475249
:101AD00045454E00424C494E4B2059454C4C4F57C2
:101AE0000053455454494D452059454C4C4F5720BF
:101AF000320053455454494D4520475245454E20E8
:101B0000320053455454494D452059454C4C4F578C
:101B10002031005F5F005F0053455454494D45201C
:101B2000475245454E203120005048415345325FD1
:101B300059454C4C4F573A00504841534532204785
:101B40005245454E3A005048415345312052454494
:101B50003A005048415345312059454C4C4F573A73
:101B600000504841534532205245443A00504841C4
:101B700053453120475245454E3A00494E4954207D
:071B800053595354454D0079
:081B88001E0EF66E000EF76E52
:101B9000000EF86E0F010900F550256F0900F55091
:101BA000266F03E1256701D03DD00900F550206F75
:101BB0000900F550216F0900F550226F0900090056
:101BC000F550E96E0900F550EA6E090009000900B8
:101BD000F550236F0900F550246F09000900F6CF76
:101BE00027FFF7CF28FFF8CF29FF20CFF6FF21CF1F
:101BF000F7FF22CFF8FF0F01235302E1245307E040
:101C00000900F550EE6E2307F8E22407F9D727CF35
:101C1000F6FF28CFF7FF29CFF8FF0F012507000EA9
:061C2000265BBFD7120095
:0A1C260006500B02F3CF02F0F4CFDA
:101C300003F00C02F3500326000EF420046E06504D
:101C40000D02F3500426000EF420056E06500E021D
:101C5000F350052607500B02F3500326F4500422DC
:101C6000000E052207500C02F3500426F450052202
:101C700007500D02F350052608500B02F3500426BE
:101C8000F450052208500C02F350052609500B02AF
:061C9000F35005261200CE
:0A1C9600006A0EAE56EF0EF00C6C63
:101CA0000D1E0E1EE86A0D220E22001E09AE60EF08
:101CB0000EF0076C081E091EE86A08220922001EA1
:101CC0009CEC0EF009BE73EF0EF000AE000C076C3A
:101CD000081E091EE86A08220922036C041E051E5C
:101CE00004220522000C00BE67EF0EF00188FF0CF5
:101CF000056A046A036A026A200EE76ED890063607
:101D000007360836093602360336043605360B50D8
:101D1000025C0C5003580D5004580E50055809E34E
:101D20000B50025E0C50035A0D50045A0E50055AC7
:081D3000062AE72EE4D7120099
:081D3800056A046A036A180E33
:101D4000E76ED8900736083609360336043605366E
:101D50000C50035C0D5004580E50055807E30C500E
:101D6000035E0D50045A0E50055A072AE72EEAD793
:021D700012005F
:0E1D7200800EF36E00EE00F00F0E01D812008E
:101D8000EA6002D0EE6AFCD7F350E9601200EE6A16
:021D9000FCD77E
:0E1D92001EEE00F02EEE00F0F86A019CC4EC8C
:0E1DA0000DF003EC00F02EEC00F0FBD712006B
:021DAE00056AC4
:101DB000080EE76ED890093605360E50055C02E332
:0A1DC000056E092AE72EF7D712007E
:061DCA0000000000000013
:101DD0000000000000000000000000000000000003
:0A1DE00000000100010001000100F5
:061DEA00010204081020B4
:101DF000408000000000000000000102030A04050A
:101E0000060B0708090C0D000E0F190F050A040038
:081E10000000000000000000CA
:081E18000020202020202020E2
:101E200020202020202020202020202020202020B2
:091E300020202020202020202089
:071E390000000000000000A2
:101E40000000000000000000000000000000000092
:101E5000000000000000000000102040800102048B
:091E600008010204081020408072
:020000040030CA
:0100010002FC
:0100020003FA
:010003001EDE
:010005008179
:010006008178
:010008000FE8
:01000900C036
:01000A000FE6
:01000B00E014
:01000C000FE4
:01000D0040B2
:00000001FF
